:1000000012C02CC02BC02AC04AC128C027C026C09D
:1000100025C002C123C022C021C020C01FC01EC0F5
:100020001DC01CC01BC011241FBECFE5D4E0DEBF25
:10003000CDBF10E0A0E6B0E0E0EEF6E002C0059033
:100040000D92A436B107D9F710E0A4E6B0E001C0E4
:100050001D92A638B107E1F76BD140C3D1CF86B16D
:10006000866886B984B195B1089587B38F6C87BBD4
:1000700081B3836F81BB88B3807388BB82B38C707C
:1000800082BB83B7826083BF12BE85B5826085BDA7
:1000900014BC8EB582608EBD89B7816489BF089516
:1000A00080916A00823081F0833028F4882381F0C7
:1000B000813079F407C0843049F0843028F08530ED
:1000C00041F404C0969A0895C19A0895C09A08957B
:1000D000969A089580917800823081F0833028F4D8
:1000E000882381F0813079F407C0843049F084306E
:1000F00028F0853041F404C0919A0895C79A089574
:10010000949A0895919A089588B3807F88BB82B3AA
:100110008F7382BB80916A008230B1F0833028F403
:10012000882351F0813011F50BC08430A9F0843060
:1001300078F08530D9F416C0969AC29A81E00FC043
:10014000C19AC29A82E00BC0C19A979A83E007C015
:10015000C09A979A84E003C0C09AC39A85E08093BE
:100160006A000895969AC39A10926A00089588B317
:100170008F7388BB82B38C7C82BB80917800823085
:10018000B1F0833028F4882351F0813011F50BC091
:100190008430A9F0843078F08530D9F416C0919A73
:1001A000C69A81E00FC0C79AC69A82E00BC0C79A70
:1001B000909A83E007C0949A909A84E003C0949A3E
:1001C000959A85E0809378000895919A959A109277
:1001D0007800089580936400882361F4109266008B
:1001E00088EE93E0909361008093600010926F001E
:1001F00010928500089580936500882361F4109221
:10020000670088EE93E09093630080936200109201
:100210007B001092850008951F920F920FB60F92E7
:1002200011242F933F934F935F936F937F938F93FB
:100230009F93AF93BF93EF93FF93F89480916400E3
:100240008823A9F090918500992319F429DF8CE97E
:1002500005C0913029F490938500809582BF0DC030
:1002600098B39C7F98BB969810928500F7CF88B37F
:10027000807F88BB82B38F7382BB7894FF91EF91AC
:10028000BF91AF919F918F917F916F915F914F91AE
:100290003F912F910F900FBE0F901F9018951F92B6
:1002A0000F920FB60F9211241F932F933F934F93EA
:1002B0005F936F937F938F939F93AF93BF93EF93CE
:1002C000FF93F894909165009923C9F010918400F0
:1002D000112319F4FFDE8CE908C0113041F4FADE75
:1002E0001093840080916500809584BD0EC0C798EE
:1002F00082B38D7E82BB1092840094BD06C088B309
:100300008F7388BB82B38C7C82BB7894FF91EF9112
:10031000BF91AF919F918F917F916F915F914F911D
:100320003F912F911F910F900FBE0F901F90189526
:10033000BF92CF92DF92EF92FF920F931F93CF93D2
:10034000DF9393DE8CDE8AE0809365007894C8EEBC
:10035000D3E0FF24F394B6E0BB2E04E013E0A2E068
:10036000EA2EF7E0DF2EE5E0CE2E809164008823B0
:1003700009F4DAC080916600882309F4B0C0B7B8E8
:1003800086B1866086B901C0000086B18670E1F74B
:1003900084B195B1909369008093680080916A0060
:1003A000823091F0833028F4882351F0813069F451
:1003B00009C0843039F0843018F0853031F404C03D
:1003C00017B803C0D7B801C0F7B886B1866086B940
:1003D00001C0000086B18670E1F780916B009091BA
:1003E0006C00019690936C0080936B0084B195B182
:1003F00090936E0080936D0020916F00223021F168
:10040000233030F4222351F0213009F08DC013C085
:100410002330F1F1243009F087C04EC020916800EC
:10042000309169002817390718F4F0926F007CC0EA
:10043000E0926F0079C02091680030916900281720
:10044000390708F471C008C0209168003091690034
:100450002817390708F068C02CB53DB530937100F6
:1004600020937000C901880F991F4091720050912C
:100470007300841B950B9093750080937400821712
:10048000930718F410936F004FC000936F004CC097
:100490002CB53DB58091740090917500821793073B
:1004A00008F042C02CB53DB580917000909171006C
:1004B00028173907C8F509C02CB53DB580917400DF
:1004C000909175008217930778F51EDE8CB59DB567
:1004D000909373008093720010926F0025C020915A
:1004E0006B0030916C0080916000909161008217E8
:1004F000930788F410926C0010926B0005DE8CB5A7
:100500009DB59093750080937400D0936100C09363
:100510006000F092660080916B0090916C000196F3
:1005200090936C0080936B0080916400882309F4A1
:10053000B0C0E7B886B1866086B901C0000086B158
:100540008670E1F784B195B190937700809376003F
:1005500080917800823071F0833028F4882361F034
:10056000813079F40BC0843049F0843028F0853034
:1005700041F406C0C7B805C007B903C017B901C028
:1005800087B986B1866086B901C0000086B18670E1
:10059000E1F784B195B190937A008093790020912E
:1005A0007B00223029F1233030F4222359F021300E
:1005B00009F0DBCE14C0233009F442C0243009F026
:1005C000D4CE53C020917600309177002817390798
:1005D00018F4F0927B00C9CEE0927B00C6CE209149
:1005E0007600309177002817390708F4BECE08C08E
:1005F00020917600309177002817390708F0B5CEA2
:100600002CB53DB530937D0020937C0040917E0059
:1006100050917F005093810040938000C901880F62
:10062000991F841B950B90937F0080937E00821707
:10063000930718F410937B0098CE00937B0095CE1F
:100640002CB53DB580917E0090917F008217930775
:1006500008F08BCE2CB53DB580917C0090917D004B
:100660002817390708F081CE0AC02CB53DB5809116
:100670007E0090917F008217930708F076CE77DD99
:100680008CB59DB5909381008093800010927B0083
:100690006CCE80916500882309F467CE209182009A
:1006A00030918300809162009091630082179307DC
:1006B00058F4109283001092820059DDF092670086
:1006C000D0936300C0936200809182009091830078
:1006D0000196909383008093820047CEF894FFCFD9
:0406E000E803E80340
:00000001FF
