:1000000012C02CC02BC02AC053C128C027C026C094
:1000100025C00BC123C022C021C020C01FC01EC0EC
:100020001DC01CC01BC011241FBECFE5D4E0DEBF25
:10003000CDBF10E0A0E6B0E0E8E2F5E002C0059038
:100040000D92A436B107D9F710E0A4E6B0E001C0E4
:100050001D92A637B107E1F774D164C2D1CF86B142
:10006000856886B9369A3699FECF84B195B10895E0
:1000700087B38F6C87BB81B3836F81BB88B3807379
:1000800088BB82B38C7082BB83B7826083BF12BE91
:1000900085B5826085BD14BC8EB582608EBD089525
:1000A00080917500823081F0833028F4882381F0BC
:1000B000813079F407C0843049F0843028F08530ED
:1000C00041F404C0969A0895C19A0895C09A08957B
:1000D000969A089580916800823081F0833028F4E8
:1000E000882381F0813079F407C0843049F084306E
:1000F00028F0853041F404C0919A0895C79A089574
:10010000949A0895919A089588B3807F88BB82B3AA
:100110008F7382BB809175008230B1F0833028F4F8
:10012000882351F0813011F50BC08430A9F0843060
:1001300078F08530D9F416C0969AC29A81E00FC043
:10014000C19AC29A82E00BC0C19A979A83E007C015
:10015000C09A979A84E003C0C09AC39A85E08093BE
:1001600075000895969AC39A10927500089588B301
:100170008F7388BB82B38C7C82BB80916800823095
:10018000B1F0833028F4882351F0813011F50BC091
:100190008430A9F0843078F08530D9F416C0919A73
:1001A000C69A81E00FC0C79AC69A82E00BC0C79A70
:1001B000909A83E007C0949A909A84E003C0949A3E
:1001C000959A85E0809368000895919A959A109287
:1001D0006800089580936400882361F4109266009B
:1001E00080EA9FE090936300809362001092740015
:1001F00010927300089580936500882361F4109233
:10020000670080EA9FE09093610080936000109205
:100210006B00109273000895962F981B681710F0CA
:10022000892F0895892F815008951F920F920FB63C
:100230000F9211242F933F934F935F936F937F936C
:100240008F939F93AF93BF93EF93FF93F894809115
:1002500064008823A9F090917300992319F420DF9A
:100260008CE905C0913029F490937300809582BF8A
:100270000DC098B39C7F98BB969810927300F7CFEF
:1002800088B3807F88BB82B38F7382BB7894FF91E1
:10029000EF91BF91AF919F918F917F916F915F91FE
:1002A0004F913F912F910F900FBE0F901F90189577
:1002B0001F920F920FB60F9211241F932F933F930B
:1002C0004F935F936F937F938F939F93AF93BF935E
:1002D000EF93FF93F894909165009923C9F01091E2
:1002E0007200112319F4F6DE8CE908C0113041F4D4
:1002F000F1DE1093720080916500809584BD0EC080
:10030000C79882B38D7E82BB1092720094BD06C0E6
:1003100088B38F7388BB82B38C7C82BB7894FF9147
:10032000EF91BF91AF919F918F917F916F915F916D
:100330004F913F912F911F910F900FBE0F901F90E3
:1003400018959F92AF92BF92CF92DF92EF92FF9259
:100350000F931F93CF93DF938BDE81DE8AE0809330
:1003600065007894C8ECD0E0AA24A39470EAE72E44
:100370007FE0F72E65E0B62E53E0C52E44E0D42E84
:1003800032E0932E809165008823E1F3809167002D
:10039000882309F460C080916800823071F0833056
:1003A00028F4882361F0813079F40BC0843049F05F
:1003B000843028F0853041F406C0B7B805C0D7B8FE
:1003C00003C0C7B801C087B9369A01C0000036998A
:1003D000FDCF04B115B110936A00009369008091BC
:1003E0006B008230F1F0833028F4882341F08130B3
:1003F00049F611C08330F1F0843021F620C0CE01DF
:10040000969587950817190718F0A0926B00BACF38
:1004100090926B00B7CFC017D10708F4B3CFA7DE17
:1004200017C00C171D0708F4ADCFA1DE10926B00AA
:10043000E801A8CF8CB59DB58CB59DB5A3CF8CB583
:100440009DB595DE8CB59DB590936D0080936C0045
:1004500010926B0097CF00916E0010916F00809109
:100460006000909161008017910708F051C00A97D1
:1004700090936100809360007ADE083C110508F0DB
:1004800043C0809170009091710023E0883E9207F4
:10049000A8F580916800823091F0833028F4882399
:1004A00051F0813069F409C0843039F0843018F09B
:1004B000853031F404C0D7B803C0C7B801C0B7B89D
:1004C000369A01C000003699FDCF84B195B1C817A6
:1004D000D90708F4EC0180916000909161000A96C0
:1004E0009093610080936000809170009091710002
:1004F0000196909371008093700006C0A0926700EF
:10050000F0926100E092600010926F0010926E0015
:1005100080916E0090916F00019690936F00809390
:080520006E0030CFF894FFCF0C
:04052800A00FA00F71
:00000001FF
