:1000000012C02DC02BC02AC029C028C027C026C0BE
:1000100025C024C023C022C021C020C0CAC11EC028
:100020001DC01CC01BC011241FBECFE5D4E0DEBF25
:10003000CDBF10E0A0E6B0E0E2E8F5E002C0059038
:100040000D92A636B107D9F710E0A6E6B0E001C0E0
:100050001D92A038B107E1F760D291C2D1CF1F92B3
:100060000F920FB60F9211248F9383E08093660056
:100070008BB78F7B8BBF89B78F7789BF85B58D7F16
:1000800085BD89E082BF85B5826085BD8BE983BD72
:100090001092690088B7806888BF89B7806889BF77
:1000A0008F910F900FBE0F901F9018958091660052
:1000B000823001F1833021F1813009F046C0809116
:1000C0006800883090F48091670080FF02C0939AA6
:1000D00001C0939880916700869580936700809116
:1000E00068008F5F8093680032C0939A82E08093AB
:1000F00066002DC089B78F7789BF1092660021C036
:1001000087E683BD80916900883090F48091690012
:100110008F5F8093690080916A00869580936A0062
:10012000829B15C080916A00806880936A000FC02E
:1001300084E08093660089B78F7789BF8AB780642F
:100140008ABF8BB780648BBF02C01092660080E0CC
:1001500090E00895909166009923E1F791E09093E3
:1001600066009BB79F7B9BBF8093670010926800DF
:1001700085B58D7F85BD12BE85B5826085BD93989E
:10018000939889B7806889BF0895EF92FF92CF93C3
:10019000DF93E82EE7017E01F92EE70101C0DADFE7
:1001A00089918823E1F7DF91CF91FF90EF90089537
:1001B00086B18E6A86B9369A84B195B1089587B3AF
:1001C0008F6C87BB81B3836F81BB88B3807388BB1F
:1001D00082B38C7082BB83B7826083BF12BE8EB540
:1001E00082608EBD089580917A00823081F08330E4
:1001F00028F4882381F0813079F407C0843049F0F5
:10020000843028F0853041F404C0919A0895C79A4B
:100210000895949A0895919A089588B38F7388BB2E
:1002200082B38C7C82BB80917A008230B1F08330C3
:1002300028F4882351F0813011F50BC08430A9F0E7
:10024000843078F08530D9F416C0919AC69A81E04E
:100250000FC0C79AC69A82E00BC0C79A909A83E0F3
:1002600007C0949A909A84E003C0949A959A85E086
:1002700080937A000895919A959A10927A00089541
:1002800080936B00882361F410926C0080ED97E0FE
:1002900090936500809364001092790010927F0023
:1002A0000895962F981B681710F0892F0895892FAD
:1002B0008150089501C086508630E8F7833071F090
:1002C000843028F4813061F0823041F405C08430FC
:1002D00039F0853019F405C085E003C084E001C021
:1002E00083E087B908950F931F93CF93DF93009115
:1002F0007B0010917C00C0916400D0916500C01714
:10030000D10708F048C0CE010A979093650080930A
:1003100064008CB59DB590937300809372007DDF6F
:1003200080917A00C7DF41E040937400083C1105DA
:1003300070F580917D0090917E0023E0883E9207C9
:1003400050F4D0936500C0936400019690937E00B2
:1003500080937D001CC010927E0010927D008091E1
:100360006000909161002091750030917600820FBD
:10037000931F9695879590936300809362004093B6
:100380006C0080ED97E0909365008093640010927C
:100390007C0010927B0080917B0090917C00019604
:1003A00090937C0080937B00DF91CF911F910F9100
:1003B00008951F920F920FB60F9211241F932F933F
:1003C0003F934F935F936F937F938F939F93AF93DD
:1003D000BF93CF93DF93EF93FF9380916D008823BA
:1003E00021F480917400882329F084B195B1109292
:1003F00074007FC080916C008823D1F484B195B1E2
:1004000020917500309176002817390720F49093D9
:100410007600809375002091600030916100821712
:10042000930708F066C0909361008093600061C0FC
:1004300084B195B190937800809377001091790002
:10044000113099F0113020F0123009F052C02AC05A
:1004500020916200309163002817390710F481E081
:1004600001C082E08093790044C020916200309105
:10047000630028173907E8F1CCB5DDB5D0936F00DC
:10048000C0936E00809172006C2F0BDF9E01280FCD
:10049000311D3093710020937000C217D30708F10B
:1004A00082E01CC0209162003091630082179307A4
:1004B00000F1CCB5DDB5D0936F00C0936E00809194
:1004C00072006C2FEEDE9E01280F311D30937100FB
:1004D00020937000C217D30720F481E080936D0051
:1004E00002C010936D0080917A008F5FE3DE10925E
:1004F0007900FF91EF91DF91CF91BF91AF919F91E3
:100500008F917F916F915F914F913F912F911F91AB
:100510000F900FBE0F901F90189551DE49DE8AE0B4
:1005200080936B00789480916B008823E1F3809135
:100530006C00882311F180916D00813059F0823078
:1005400091F72CB53DB580916E0090916F00281702
:10055000390748F72CB53DB5809170009091710036
:100560002817390700F38CB59DB5909373008093DD
:10057000720053DE10926D00D6CFB5DED4CFF89462
:02058000FFCFAB
:06058200FFFF2C01D00771
:00000001FF
